{
  "_format": "hh-sol-artifact-1",
  "contractName": "Vote",
  "sourceName": "contracts/Vote.sol",
  "abi": [
    {
      "inputs": [
        {
          "internalType": "string",
          "name": "_name",
          "type": "string"
        },
        {
          "internalType": "string",
          "name": "_party",
          "type": "string"
        },
        {
          "internalType": "string",
          "name": "_qualification",
          "type": "string"
        },
        {
          "internalType": "uint256",
          "name": "_age",
          "type": "uint256"
        },
        {
          "internalType": "address",
          "name": "_id",
          "type": "address"
        }
      ],
      "name": "addCandidate",
      "outputs": [],
      "stateMutability": "nonpayable",
      "type": "function"
    },
    {
      "inputs": [
        {
          "internalType": "address",
          "name": "user",
          "type": "address"
        },
        {
          "internalType": "address",
          "name": "contestantId",
          "type": "address"
        }
      ],
      "name": "addVote",
      "outputs": [],
      "stateMutability": "nonpayable",
      "type": "function"
    },
    {
      "inputs": [
        {
          "internalType": "string",
          "name": "_name",
          "type": "string"
        },
        {
          "internalType": "address",
          "name": "user",
          "type": "address"
        }
      ],
      "name": "addVoter",
      "outputs": [],
      "stateMutability": "nonpayable",
      "type": "function"
    },
    {
      "inputs": [
        {
          "internalType": "address",
          "name": "contestantId",
          "type": "address"
        }
      ],
      "name": "addtoarray",
      "outputs": [],
      "stateMutability": "nonpayable",
      "type": "function"
    },
    {
      "inputs": [],
      "name": "showCandidateNames",
      "outputs": [
        {
          "internalType": "string[]",
          "name": "",
          "type": "string[]"
        }
      ],
      "stateMutability": "view",
      "type": "function"
    },
    {
      "inputs": [],
      "name": "showResult",
      "outputs": [
        {
          "components": [
            {
              "internalType": "string",
              "name": "name",
              "type": "string"
            },
            {
              "internalType": "uint256",
              "name": "votecount",
              "type": "uint256"
            },
            {
              "internalType": "string",
              "name": "party",
              "type": "string"
            },
            {
              "internalType": "uint256",
              "name": "age",
              "type": "uint256"
            },
            {
              "internalType": "string",
              "name": "qualification",
              "type": "string"
            },
            {
              "internalType": "address",
              "name": "id",
              "type": "address"
            }
          ],
          "internalType": "struct Vote.Candidate[]",
          "name": "",
          "type": "tuple[]"
        }
      ],
      "stateMutability": "view",
      "type": "function"
    }
  ],
  "bytecode": "0x608060405234801561001057600080fd5b506116fd806100206000396000f3fe608060405234801561001057600080fd5b50600436106100625760003560e01c806333ee3131146100675780633d09c2a8146100855780635607395b146100a157806383438d87146100bd578063c7227f73146100d9578063ce29b246146100f7575b600080fd5b61006f610113565b60405161007c9190610d1d565b60405180910390f35b61009f600480360381019061009a9190610d7f565b610392565b005b6100bb60048036038101906100b69190610ef4565b610566565b005b6100d760048036038101906100d29190610f7c565b610614565b005b6100e1610862565b6040516100ee919061110d565b60405180910390f35b610111600480360381019061010c919061112f565b6109b2565b005b60606003805480602002602001604051908101604052809291908181526020016000905b8282101561038957838290600052602060002090600602016040518060c001604052908160008201805461016a9061118b565b80601f01602080910402602001604051908101604052809291908181526020018280546101969061118b565b80156101e35780601f106101b8576101008083540402835291602001916101e3565b820191906000526020600020905b8154815290600101906020018083116101c657829003601f168201915b50505050508152602001600182015481526020016002820180546102069061118b565b80601f01602080910402602001604051908101604052809291908181526020018280546102329061118b565b801561027f5780601f106102545761010080835404028352916020019161027f565b820191906000526020600020905b81548152906001019060200180831161026257829003601f168201915b50505050508152602001600382015481526020016004820180546102a29061118b565b80601f01602080910402602001604051908101604052809291908181526020018280546102ce9061118b565b801561031b5780601f106102f05761010080835404028352916020019161031b565b820191906000526020600020905b8154815290600101906020018083116102fe57829003601f168201915b505050505081526020016005820160009054906101000a900473ffffffffffffffffffffffffffffffffffffffff1673ffffffffffffffffffffffffffffffffffffffff1673ffffffffffffffffffffffffffffffffffffffff168152505081526020019060010190610137565b50505050905090565b600160008373ffffffffffffffffffffffffffffffffffffffff1673ffffffffffffffffffffffffffffffffffffffff16815260200190815260200160002060010160019054906101000a900460ff16610421576040517f08c379a000000000000000000000000000000000000000000000000000000000815260040161041890611219565b60405180910390fd5b600160008373ffffffffffffffffffffffffffffffffffffffff1673ffffffffffffffffffffffffffffffffffffffff16815260200190815260200160002060010160009054906101000a900460ff16156104b1576040517f08c379a00000000000000000000000000000000000000000000000000000000081526004016104a890611285565b60405180910390fd5b6000808273ffffffffffffffffffffffffffffffffffffffff1673ffffffffffffffffffffffffffffffffffffffff1681526020019081526020016000206001016000815480929190610503906112d4565b919050555060018060008473ffffffffffffffffffffffffffffffffffffffff1673ffffffffffffffffffffffffffffffffffffffff16815260200190815260200160002060010160006101000a81548160ff0219169083151502179055505050565b60018060008373ffffffffffffffffffffffffffffffffffffffff1673ffffffffffffffffffffffffffffffffffffffff16815260200190815260200160002060010160016101000a81548160ff02191690831515021790555081600160008373ffffffffffffffffffffffffffffffffffffffff1673ffffffffffffffffffffffffffffffffffffffff168152602001908152602001600020600001908161060f91906114c8565b505050565b6040518060c00160405280868152602001600081526020018581526020018381526020018481526020018273ffffffffffffffffffffffffffffffffffffffff168152506000808373ffffffffffffffffffffffffffffffffffffffff1673ffffffffffffffffffffffffffffffffffffffff16815260200190815260200160002060008201518160000190816106ab91906114c8565b506020820151816001015560408201518160020190816106cb91906114c8565b506060820151816003015560808201518160040190816106eb91906114c8565b5060a08201518160050160006101000a81548173ffffffffffffffffffffffffffffffffffffffff021916908373ffffffffffffffffffffffffffffffffffffffff16021790555090505060026000808373ffffffffffffffffffffffffffffffffffffffff1673ffffffffffffffffffffffffffffffffffffffff1681526020019081526020016000209080600181540180825580915050600190039060005260206000209060060201600090919091909150600082018160000190816107b391906115b0565b5060018201548160010155600282018160020190816107d291906115b0565b5060038201548160030155600482018160040190816107f191906115b0565b506005820160009054906101000a900473ffffffffffffffffffffffffffffffffffffffff168160050160006101000a81548173ffffffffffffffffffffffffffffffffffffffff021916908373ffffffffffffffffffffffffffffffffffffffff16021790555050505050505050565b6060600060028054905067ffffffffffffffff81111561088557610884610dc9565b5b6040519080825280602002602001820160405280156108b857816020015b60608152602001906001900390816108a35790505b50905060005b6002805490508110156109aa57600281815481106108df576108de611698565b5b906000526020600020906006020160000180546108fb9061118b565b80601f01602080910402602001604051908101604052809291908181526020018280546109279061118b565b80156109745780601f1061094957610100808354040283529160200191610974565b820191906000526020600020905b81548152906001019060200180831161095757829003601f168201915b505050505082828151811061098c5761098b611698565b5b602002602001018190525080806109a2906112d4565b9150506108be565b508091505090565b60036000808373ffffffffffffffffffffffffffffffffffffffff1673ffffffffffffffffffffffffffffffffffffffff168152602001908152602001600020908060018154018082558091505060019003906000526020600020906006020160009091909190915060008201816000019081610a2f91906115b0565b506001820154816001015560028201816002019081610a4e91906115b0565b506003820154816003015560048201816004019081610a6d91906115b0565b506005820160009054906101000a900473ffffffffffffffffffffffffffffffffffffffff168160050160006101000a81548173ffffffffffffffffffffffffffffffffffffffff021916908373ffffffffffffffffffffffffffffffffffffffff160217905550505050565b600081519050919050565b600082825260208201905092915050565b6000819050602082019050919050565b600081519050919050565b600082825260208201905092915050565b60005b83811015610b40578082015181840152602081019050610b25565b60008484015250505050565b6000601f19601f8301169050919050565b6000610b6882610b06565b610b728185610b11565b9350610b82818560208601610b22565b610b8b81610b4c565b840191505092915050565b6000819050919050565b610ba981610b96565b82525050565b600073ffffffffffffffffffffffffffffffffffffffff82169050919050565b6000610bda82610baf565b9050919050565b610bea81610bcf565b82525050565b600060c0830160008301518482036000860152610c0d8282610b5d565b9150506020830151610c226020860182610ba0565b5060408301518482036040860152610c3a8282610b5d565b9150506060830151610c4f6060860182610ba0565b5060808301518482036080860152610c678282610b5d565b91505060a0830151610c7c60a0860182610be1565b508091505092915050565b6000610c938383610bf0565b905092915050565b6000602082019050919050565b6000610cb382610ada565b610cbd8185610ae5565b935083602082028501610ccf85610af6565b8060005b85811015610d0b5784840389528151610cec8582610c87565b9450610cf783610c9b565b925060208a01995050600181019050610cd3565b50829750879550505050505092915050565b60006020820190508181036000830152610d378184610ca8565b905092915050565b6000604051905090565b600080fd5b600080fd5b610d5c81610bcf565b8114610d6757600080fd5b50565b600081359050610d7981610d53565b92915050565b60008060408385031215610d9657610d95610d49565b5b6000610da485828601610d6a565b9250506020610db585828601610d6a565b9150509250929050565b600080fd5b600080fd5b7f4e487b7100000000000000000000000000000000000000000000000000000000600052604160045260246000fd5b610e0182610b4c565b810181811067ffffffffffffffff82111715610e2057610e1f610dc9565b5b80604052505050565b6000610e33610d3f565b9050610e3f8282610df8565b919050565b600067ffffffffffffffff821115610e5f57610e5e610dc9565b5b610e6882610b4c565b9050602081019050919050565b82818337600083830152505050565b6000610e97610e9284610e44565b610e29565b905082815260208101848484011115610eb357610eb2610dc4565b5b610ebe848285610e75565b509392505050565b600082601f830112610edb57610eda610dbf565b5b8135610eeb848260208601610e84565b91505092915050565b60008060408385031215610f0b57610f0a610d49565b5b600083013567ffffffffffffffff811115610f2957610f28610d4e565b5b610f3585828601610ec6565b9250506020610f4685828601610d6a565b9150509250929050565b610f5981610b96565b8114610f6457600080fd5b50565b600081359050610f7681610f50565b92915050565b600080600080600060a08688031215610f9857610f97610d49565b5b600086013567ffffffffffffffff811115610fb657610fb5610d4e565b5b610fc288828901610ec6565b955050602086013567ffffffffffffffff811115610fe357610fe2610d4e565b5b610fef88828901610ec6565b945050604086013567ffffffffffffffff8111156110105761100f610d4e565b5b61101c88828901610ec6565b935050606061102d88828901610f67565b925050608061103e88828901610d6a565b9150509295509295909350565b600081519050919050565b600082825260208201905092915050565b6000819050602082019050919050565b60006110838383610b5d565b905092915050565b6000602082019050919050565b60006110a38261104b565b6110ad8185611056565b9350836020820285016110bf85611067565b8060005b858110156110fb57848403895281516110dc8582611077565b94506110e78361108b565b925060208a019950506001810190506110c3565b50829750879550505050505092915050565b600060208201905081810360008301526111278184611098565b905092915050565b60006020828403121561114557611144610d49565b5b600061115384828501610d6a565b91505092915050565b7f4e487b7100000000000000000000000000000000000000000000000000000000600052602260045260246000fd5b600060028204905060018216806111a357607f821691505b6020821081036111b6576111b561115c565b5b50919050565b600082825260208201905092915050565b7f566f746572206973206e6f742072656769737465726564000000000000000000600082015250565b60006112036017836111bc565b915061120e826111cd565b602082019050919050565b60006020820190508181036000830152611232816111f6565b9050919050565b7f566f7465722068617320616c72656164792063617374656420766f7465000000600082015250565b600061126f601d836111bc565b915061127a82611239565b602082019050919050565b6000602082019050818103600083015261129e81611262565b9050919050565b7f4e487b7100000000000000000000000000000000000000000000000000000000600052601160045260246000fd5b60006112df82610b96565b91507fffffffffffffffffffffffffffffffffffffffffffffffffffffffffffffffff8203611311576113106112a5565b5b600182019050919050565b60008190508160005260206000209050919050565b60006020601f8301049050919050565b600082821b905092915050565b60006008830261137e7fffffffffffffffffffffffffffffffffffffffffffffffffffffffffffffffff82611341565b6113888683611341565b95508019841693508086168417925050509392505050565b6000819050919050565b60006113c56113c06113bb84610b96565b6113a0565b610b96565b9050919050565b6000819050919050565b6113df836113aa565b6113f36113eb826113cc565b84845461134e565b825550505050565b600090565b6114086113fb565b6114138184846113d6565b505050565b5b818110156114375761142c600082611400565b600181019050611419565b5050565b601f82111561147c5761144d8161131c565b61145684611331565b81016020851015611465578190505b61147961147185611331565b830182611418565b50505b505050565b600082821c905092915050565b600061149f60001984600802611481565b1980831691505092915050565b60006114b8838361148e565b9150826002028217905092915050565b6114d182610b06565b67ffffffffffffffff8111156114ea576114e9610dc9565b5b6114f4825461118b565b6114ff82828561143b565b600060209050601f8311600181146115325760008415611520578287015190505b61152a85826114ac565b865550611592565b601f1984166115408661131c565b60005b8281101561156857848901518255600182019150602085019450602081019050611543565b868310156115855784890151611581601f89168261148e565b8355505b6001600288020188555050505b505050505050565b6000815490506115a98161118b565b9050919050565b8181036115be575050611696565b6115c78261159a565b67ffffffffffffffff8111156115e0576115df610dc9565b5b6115ea825461118b565b6115f582828561143b565b6000601f8311600181146116245760008415611612578287015490505b61161c85826114ac565b86555061168f565b601f1984166116328761131c565b965061163d8661131c565b60005b8281101561166557848901548255600182019150600185019450602081019050611640565b86831015611682578489015461167e601f89168261148e565b8355505b6001600288020188555050505b5050505050505b565b7f4e487b7100000000000000000000000000000000000000000000000000000000600052603260045260246000fdfea264697066735822122043abf7dec4f1cb912aa305ecc70815a2058614c70431f73b6b47844b9d9fdc0764736f6c63430008120033",
  "linkReferences": {},
  "deployedLinkReferences": {}
}